:100000000C942A000C9447000C9447000C94470071
:100010000C9447000C9447000C9447000C94470044
:100020000C9447000C9447000C9447000C94470034
:100030000C9447000C9447000C9447000C94470024
:100040000C9447000C9447000C9447000C94470014
:100050000C94470011241FBECFE5D4E0DEBFCDBF16
:1000600010E0A0E6B0E0EEE6F2E002C005900D92EE
:10007000A036B107D9F710E0A0E6B0E001C01D92AC
:10008000AA36B107E1F70E9449000C9435010C949F
:100090000000EF92FF920F931F93CF93DF938FEFA8
:1000A0008ABB81BB84BB17BA80EF88BBE0E0F0E07D
:1000B000B0E2EB2EBEE4FB2E1BC086B3807F803700
:1000C000B9F43196CF016AE070E00E940E0162BB84
:1000D00022B3CF016AE070E00E940E01A4E0880F15
:1000E000991FAA95E1F7282B22BBC7010197F1F7C9
:1000F000EC33F10514F3C1E0D0E0CE016AE070E02A
:100100000E940E0165BB25B3CE016AE070E00E943B
:100110000E0174E0880F991F7A95E1F7282B25BB13
:10012000C7010197F1F7E0E0F0E016C0CF016AE007
:1001300070E00E940E0162BB22B3CF016AE070E062
:100140000E940E0164E0880F991F6A95E1F7282B41
:1001500022BBC7010197F1F73196ED33F10531F775
:100160002196CD33D10549F601E010E0C8016AE0DF
:1001700070E00E940E016BBB2BB3C8016AE070E017
:100180000E940E0154E0880F991F5A95E1F7282B21
:100190002BBBC7010197F1F7C1E0D0E0CE016AE0C7
:1001A00070E00E940E0165BB25B3CE016AE070E0ED
:1001B0000E940E0144E0880F991F4A95E1F7282B11
:1001C00025BBC7010197F1F7E0E0F0E016C0CF01D1
:1001D0006AE070E00E940E0162BB22B3CF016AE0C8
:1001E00070E00E940E0134E0880F991F3A95E1F704
:1001F000282B22BBC7010197F1F73196ED33F105AA
:1002000031F72196CD33D10549F60F5F1F4FE0E05E
:10021000F0E00931110509F46BCFA8CF97FB092E47
:1002200007260AD077FD04D00CD006D000201AF49F
:10023000709561957F4F0895F6F7909581959F4F42
:100240000895AA1BBB1B51E107C0AA1FBB1FA6171D
:10025000B70710F0A61BB70B881F991F5A95A9F76F
:0E02600080959095BC01CD010895F894FFCFD4
:00000001FF
