:100000000C942A000C9447000C9447000C94470071
:100010000C9447000C9447000C9447000C94470044
:100020000C9447000C9447000C9447000C94470034
:100030000C9447000C9447000C9447000C94470024
:100040000C9447000C9447000C9447000C94470014
:100050000C94470011241FBECFE5D4E0DEBFCDBF16
:1000600010E0A0E6B0E0EAECF0E002C005900D92EE
:10007000A036B107D9F710E0A0E6B0E001C01D92AC
:10008000A036B107E1F70E9449000C9463000C947C
:1000900000008FEF84BB81BB85E085BB5AEA28EC6A
:1000A00030E045E552BB88EE93E0F9013197F1F776
:1000B0000197D9F742BB88EE93E0F9013197F1F748
:0A00C0000197D9F7EFCFF894FFCFB6
:00000001FF
