:100000000C942A000C9447000C9447000C94470071
:100010000C9447000C9447000C9447000C94470044
:100020000C9447000C9447000C9447000C94470034
:100030000C9447000C9447000C9447000C94470024
:100040000C9447000C9447000C9447000C94470014
:100050000C94470011241FBECFE5D4E0DEBFCDBF16
:1000600010E0A0E6B0E0E2ECF2E002C005900D92F4
:10007000A036B107D9F710E0A0E6B0E001C01D92AC
:10008000A036B107E1F70E943A010C945F010C948D
:100090000000282F207F28BBC298C39A20ED37E0AC
:1000A000F9013197F1F7C398F9013197F1F790E031
:1000B00044E0880F991F4A95E1F788BBC298C39A1C
:1000C000C9010197F1F7C398C9010197F1F70895A4
:1000D00082E090E00E94490088E290E00E9449009E
:1000E00086E090E00E9449008CE090E00E94490088
:1000F0000895282F207F28BBC29AC39A20ED37E0AD
:10010000F9013197F1F7C398F9013197F1F790E0D0
:1001100054E0880F991F5A95E1F788BBC29AC39A99
:10012000C9010197F1F7C398C9010197F1F7089543
:1001300081E00E94490080ED97E00197F1F7089572
:100140001F93CF93DF93EC0110E003C00E9479006E
:100150001F5FFE01E10FF11D80818823B9F7DF9158
:10016000CF911F910895CF93DF93EC0184E00E941B
:100170004900209791F480E30E9479000EC0CE01DF
:100180006AE070E00E944B01805D0E947900CE0120
:100190006AE070E00E944B01EB01209781F786E056
:1001A0000E944900DF91CF9108956EE020E137E28F
:1001B0005DE04BE062BBC9010197F1F7C99913C03B
:1001C000C99BFECF86B3807F803469F480EA85BB0B
:1001D00088EE93E028EC30E0F9013197F1F70197D0
:1001E000D9F784E3089552BBC9010197F1F7C89983
:1001F00013C0C89BFECF86B3807F803869F480E54A
:1002000085BB88EE93E028EC30E0F9013197F1F7F7
:100210000197D9F788E30895CA9912C0CA9BFECF07
:1002200086B3807F803261F485BB88EE93E028EC52
:1002300030E0F9013197F1F70197D9F782E308959A
:1002400042BBC9010197F1F7C999B4CFC99BFECF51
:1002500086B3807F803609F0ADCF80E885BB88EE1D
:1002600093E028EC30E0F9013197F1F70197D9F7E5
:1002700086E30895CF93DF931ABA8FEF81BB84BBD7
:100280008BBB17BA88BBC0E2DEE40E94D500CE016A
:100290000197F1F7FACFAA1BBB1B51E107C0AA1FB8
:1002A000BB1FA617B70710F0A61BB70B881F991F17
:1002B0005A95A9F780959095BC01CD010895F894C1
:0202C000FFCF6E
:00000001FF
